:020000040000FA
:10000000A928831203178C00831603178C130C1571
:100010008B1355308D00AA308D008C148B178C18E3
:100020000F280C11831203130D12831203178D0A6C
:100030000800831203130C1E19288312031399005E
:100040000800831203130C1E1928831203138C1E3D
:100050002528831203131A080800831203138C1136
:10006000831603131114831203138C1D3528831276
:10007000031390309300831203138C118C1D3E28C0
:100080008312031301309300831203138C118C1D10
:100090004728831203138C1183160313111583123F
:1000A00003138C1D5128831203138C118316031321
:1000B0001114831203138C1D5B28831203139130D8
:1000C0009300831203138C118C1D64288316031371
:1000D0009115831203138C1D00288C1183120313B6
:1000E00013088316031391121116111A752891150E
:1000F000192083120313A000831203138C1D002800
:100100008C11831203131308831603139112111613
:10011000111A88289115192083120313A100831244
:1001200003131308192083120313A200831203136D
:100130008C11831603131115831203138C1D9E2833
:0E014000831203132108192022081920080039
:02014E0000347B
:02015000003479
:0E01520083160313D730810083120313860136
:100160008316031300308600283083120313940093
:100170000930831603139300803083160313940011
:10018000D8308316031387008316031319309900A0
:1001900083160313243098008312031390309800C1
:1001A000AA301920BB301920CC301920DD3019209D
:1001B000EE301920FF301920AA301920BB30192049
:1001C000CC301920DD301920EE301920FF301920F5
:1001D000013083120313860083120313FF30A00043
:1001E000A100A200200819202108192022081920A6
:1001F0002D202D202D202D20063083120313860064
:020200000029D3
:02400E00793FF8
:00000001FF
